:0400000080316928BA
:100008007E14803120007F08F500911E64282300AB
:100018009D1C25281D121D164530F400740820006B
:10002800EB005230F4007408EC004F30F400740810
:10003800ED005630F4007408EE006B308331252350
:10004800803123001908F4007808A03E8600870153
:1000580074088100253021002006031D4B2801303B
:10006800F8070030F93D7908803AF40080307402CE
:10007800031D402810307802031C6428013020003A
:10008800E5000030E600F801F90191126428230028
:100098001D121D16F801F9014530F40074082000FE
:1000A800EB005230F4007408EC005230F40074088D
:1000B800ED005830F4007408EE006B3083312523CE
:1000C80075082000FF007E10090080316B288331FD
:1000D800B6238031FA008331B7238031FB009E308C
:1000E800840083308500673086000030870009303F
:1000F8008331A72380314030840082308500A030CE
:1001080086000030870038308331A72380310630DD
:1001180084008230850020308600013087003A3024
:100128008331A7238031F601F701F801F9014D3039
:100138008400003085001A308331AD237E10200002
:10014800883143282000B800BD01BE01C101C201A9
:10015800B601B701BF01C0016A08BA006908B90051
:100168006808BC006708BB003808B4003408B90048
:100178002E08B4003408BA00393081319B2180310F
:1001880020002708BE002608BD002F08D03EC10069
:10019800FF3003180030C2003008B4003408BB0038
:1001A8003108B4003408BC003B3081319B218031D8
:1001B80020002708B7002608B6003208B4003D081A
:1001C800C03E86008701340881003D08C03E860095
:1001D80087010108B4003D08B23E86008701340853
:1001E80081003E08B5003D08B400B435B50DB435FE
:1001F800B50D3408FC3EBF00FF30353DC000473028
:10020800B4003F08203E8600013087003408810092
:100218000130BF070030C03D2F08B4003F08203E22
:10022800860001308700340881000130BF070030A4
:10023800C03D3808B4003F08203E860001308700E2
:10024800340881000130BF070030C03D2E08B400DB
:100258003F08203E86000130870034088100FD30C9
:10026800BF07FF30C03D31303306031D87293F08E3
:10027800203E8231CE22803187292000410C031C88
:100288008D1003188D140800410C031C8E100318E0
:100298008E140800410C031C0C1003180C140800E1
:1002A800410C2500031C8C1003188C140800200036
:1002B800410C031C8C1103188C150800410C031CFD
:1002C8008C1003188C140800410C031C0C11031823
:1002D8000C150800410C031C8D1103188D1508001E
:1002E800410C031C8C1203188C160800410C031CCB
:1002F8000E1003180E140800410C2500031C0C10E6
:1003080003180C14080020003E08003A03198D2930
:100318009A293D08FF3E031C080084000B300402A4
:1003280003180800833104353E3E8200080020008F
:10033800AD002D088600870120300106031DA9297C
:100348000130A8002808AD079D292D0886008701DF
:10035800093001060319A429AB01AC01AA012D0833
:10036800860087012D300106031DBF290130A80032
:100378002808AA07C6292D08860087012B30010600
:10038800031DCA290130A8002808AD072D088600DA
:100398008701010883318F238131031CF129200053
:1003A8002C08A1002B08A0000A30A2000030A300EE
:1003B80083310923813120002D0886008701010837
:1003C8002007A80021080318210AA9002808D03E00
:1003D800AB00FF30293DAC00C62920002A080319CC
:1003E800012A2B09A8002C09A900A80A0319A90A9F
:1003F8002808A6002908A70008002C08A7002B0831
:10040800A6000800233400340034003400340034DB
:100418000034003400340034003400340034003434
:100428000034003400340034003400340034003424
:100438000034003400340034003400340034003414
:100448000034003400340034003400340034003404
:1004580000340034003400340034003400340034F4
:1004680000340034003400340034003400340034E4
:1004780000340034003400342334003400340034B1
:1004880000340034003400340034003400340034C4
:100498000034003400340034003400343034303454
:1004A8003034303430343034303430343034303424
:1004B8003034303400340034303430343034303474
:1004C8003034303430343034303430343034303404
:1004D8000034003423340034003400340034003451
:1004E800003400340034003402302000A100003011
:1004F800A2000230A1000030A2002208803AA00029
:1005080080302002031D8A2A0930210203180800BE
:1005180020002108A03E860087010108A0002108CC
:10052800FE3ECE3E86008701200881002330A000D1
:100538002108A03E86008701200881000130A1071C
:100548000030A23D812A83317F23823183316A239F
:10055800823126000C158C150C168C160C172100F0
:100568008F170F178F160F168F150F158D108E10EA
:100578000C1026008C1021008C118C100C118D1180
:100588008C120E1026000C1021000E138E178331CA
:100598007F2308002000A300A101A2010430210646
:1005A80022040319080023009E1CD72A20002308D0
:1005B800860001308700010823009A0001302000DE
:1005C800A0002008A3070130A1070030A23DD22ACD
:1005D8002000A300A101A20104302106220403196E
:1005E800080023009E1CF52A2000230886008701A6
:1005F800010823009A0001302000A0002008A3076A
:100608000130A1070030A23DF02A2000A401A50175
:10061800201C122B2208A4072308A53D0130A2356F
:10062800A30D890B132B0130A136A00C890B182BB5
:1006380020082104031D0C2B2508A1002408A00074
:100648000800F300F101F201043071067204031985
:10065800080023009E1C2D2B7308860087010108C3
:100668009A000130F0007008F3070130F1070030FC
:10067800F23D282B813141298131482981314E2988
:100688008131542981315B2981316229813168297D
:1006980081316E298131742981317A29813180290A
:1006A8002100911211120A3023009F0090309D0002
:1006B80024309E00A0309B0001309C008B170B1744
:1006C8002100911623009E169D17080028008D0111
:1006D80029008D0128008C0123009001240090013D
:1006E80023008F0124008F0123008D0124008D0138
:1006F80023008C01080020008D108E100C1025009E
:100708008C1020008C118C100C118D118C120E1075
:1007180025000C1008002000A100A0013A30210299
:1007280003189C2B30302102031C9C2BA001A00A2B
:10073800200C0800233400342334003423342334B9
:10074800233423340034FE0012001E00FE0BA82BB5
:100758000034640080010131890BAE2B00348331F1
:08076800542308003034303442
:1010860029302000C4009630C3007F30890B4928E0
:10109600C30B4928C40B492801302000E300003067
:1010A600E4000130E1000030E2000130DF000030F2
:1010B600E0000130DD000030DE000130DB000030F2
:1010C600DC000130D9000030DA000130D7000030F2
:1010D600D8000130D5000030D6000130D3000030F2
:1010E600D4000130D1000030D2000130CF000030F2
:1010F600D0000130CD000030CE008231A7228831E9
:101106008331B3238831200065036604031D0C294F
:10111600E501E601253021002006031DCB282530F8
:101126002106031DCB2840302E06031DCB28403058
:101136002F06031DCB2882317822883121004F08E3
:101146002000C3004308AE00210050082000C40060
:101156004408AF00210051082000C5004508B00032
:10116600210052082000C6004608B100210053089D
:101176002000C7004708B200210054082000C8001C
:101186004808B30021004E088031A62088310C297A
:1011960045302000C3004308EB005230C30043082B
:1011A600EC004C30C3004308ED005330C300430845
:1011B600EE006B308231EC22883123009D131D1224
:1011C6002000C901CA014A08803AC30080304302A0
:1011D600031DEF280F304902031809292330200088
:1011E600C3004908A03E86008701430881000130FC
:1011F600C9070030CA3D4A08803AC300803043021E
:10120600031D07290F304902031CF12823001D1670
:101216009D1701302000CB000030CC00303021007B
:101226003306031D632925000C1963292000630872
:101236006404031D63294B034C04031D5D291A3006
:101246002000C300F830890B2629C30B262900008D
:10125600523023009A0006302000C3003030890B3C
:101266003229C30B32290000303023009A000630A1
:101276002000C3003030890B3E29C30B3E290000F5
:10128600303023009A0006302000C3003030890B2E
:101296004A29C30B4A290000313023009A00063040
:1012A6002000C3003030890B5629C30B5629000095
:1012B60020008D10CB01CC010130E3000030E400AA
:1012C600303021003306031DB32925000C1DB32938
:1012D600200063036404031DB3294B034C04031D60
:1012E600AF291A302000C300F830890B7829C30BC8
:1012F60078290000523023009A0006302000C300EF
:101306003030890B8429C30B842900003130230037
:101316009A0006302000C3003030890B9029C30B99
:1013260090290000303023009A0006302000C300C8
:101336003030890B9C29C30B9C29000031302300D7
:101346009A0006302000C3003030890BA829C30B51
:10135600A829000020008D14CB01CC01E301E40193
:10136600303021003406031D052A25008C19052A74
:10137600200061086204031D052A4B034C04031D6B
:10138600FF291A302000C300F830890BC829C30B87
:10139600C8290000523023009A0006302000C300FE
:1013A6003030890BD429C30BD429000030302300F8
:1013B6009A0006302000C3003030890BE029C30BA9
:1013C600E0290000303023009A0006302000C300D8
:1013D6003030890BEC29C30BEC2900003230230096
:1013E6009A0006302000C3003030890BF829C30B61
:1013F600F829000020008E10CB01CC010130E1005D
:101406000030E200303021003406031D552A250045
:101416008C1D552A200061036204031D552A4B03C7
:101426004C04031D512A1A302000C300F830890BE2
:101436001A2AC30B1A2A0000523023009A000630DB
:101446002000C3003030890B262AC30B262A000051
:10145600313023009A0006302000C3003030890B5B
:10146600322AC30B322A0000303023009A0006309D
:101476002000C3003030890B3E2AC30B3E2A0000F1
:10148600323023009A0006302000C3003030890B2A
:101496004A2AC30B4A2A000020008E14CB01CC0135
:1014A600E101E201303021003506031DA72A25009F
:1014B6000C1AA72A20005F086004031DA72A4B0305
:1014C6004C04031DA12A1A302000C300F830890BF2
:1014D6006A2AC30B6A2A0000523023009A0006309B
:1014E6002000C3003030890B762AC30B762A000011
:1014F600303023009A0006302000C3003030890BBC
:10150600822AC30B822A0000303023009A0006305C
:101516002000C3003030890B8E2AC30B8E2A0000B0
:10152600333023009A0006302000C3003030890B88
:101536009A2AC30B9A2A000020000C10CB01CC017A
:101546000130DF000030E000303021003506031D99
:10155600F72A25000C1EF72A20005F036004031DEE
:10156600F72A4B034C04031DF32A1A302000C3004C
:10157600F830890BBC2AC30BBC2A0000523023006A
:101586009A0006302000C3003030890BC82AC30BEE
:10159600C82A0000313023009A0006302000C3001C
:1015A6003030890BD42AC30BD42A000030302300F4
:1015B6009A0006302000C3003030890BE02AC30BA6
:1015C600E02A0000333023009A0006302000C300D2
:1015D6003030890BEC2AC30BEC2A000020000C14D7
:1015E600CB01CC01DF01E001303021003606031DBE
:1015F6004A2B25008C1A4A2B20005D085E04031D29
:101606004A2B4B034C04031D432B1A302000C30006
:10161600F830890B0C2BC30B0C2B00005230230027
:101626009A0006302000C3003030890B182BC30BFC
:10163600182B0000303023009A0006302000C3002B
:101646003030890B242BC30B242B000030302300B1
:101656009A0006302000C3003030890B302BC30BB4
:10166600302B0000343023009A0006302000C300DF
:101676003030890B3C2BC30B3C2B000025008C1013
:101686002000CB01CC010130DD000030DE0030301F
:1016960021003606031D9B2B25008C1E9B2B20004C
:1016A6005D035E04031D9B2B4B034C04031D962B0D
:1016B6001A302000C300F830890B5F2BC30B5F2B59
:1016C6000000523023009A0006302000C30030305C
:1016D600890B6B2BC30B6B2B0000313023009A0058
:1016E60006302000C3003030890B772BC30B772BD5
:1016F6000000303023009A0006302000C30030304E
:10170600890B832BC30B832B0000343023009A00F4
:1017160006302000C3003030890B8F2BC30B8F2B74
:10172600000025008C142000CB01CC01DD01DE0178
:10173600303021003706031DED2B25000C1BED2B49
:1017460020005B085C04031DED2B4B034C04031DBA
:10175600E72B1A302000C300F830890BB02BC30BDF
:10176600B02B0000523023009A0006302000C30040
:101776003030890BBC2BC30BBC2B00003030230050
:101786009A0006302000C3003030890BC82BC30BEB
:10179600C82B0000303023009A0006302000C3001A
:1017A6003030890BD42BC30BD42B000035302300EB
:1017B6009A0006302000C3003030890BE02BC30BA3
:1017C600E02B000020008C11CB01CC010130DB00A6
:1017D6000030DC00303021003706031D3D2C25008B
:1017E6000C1F3D2C20005B035C04031D3D2C4B03AA
:1017F6004C04031D392C1A302000C300F830890B25
:10180600022CC30B022C0000523023009A00063033
:101816002000C3003030890B0E2CC30B0E2C0000A9
:10182600313023009A0006302000C3003030890B87
:101836001A2CC30B1A2C0000303023009A000630F5
:101846002000C3003030890B262CC30B262C000049
:10185600353023009A0006302000C3003030890B53
:10186600322CC30B322C000020008C15CB01CC018E
:10187600DB01DC01303021003806031D8E2C2000F0
:101886008F1B8E2C59085A04031D8E2C4B034C04B7
:10189600031D882C1A302000C300F830890B512C08
:1018A600C30B512C0000523023009A000630200052
:1018B600C3003030890B5D2CC30B5D2C000030302B
:1018C60023009A0006302000C3003030890B692CB3
:1018D600C30B692C0000303023009A00063020002C
:1018E600C3003030890B752CC30B752C00003630C5
:1018F60023009A0006302000C3003030890B812C6B
:10190600C30B812C000020008C10CB01CC010130D0
:10191600D9000030DA00303021003806031DDD2CF6
:1019260020008F1FDD2C59035A04031DDD2C4B03A9
:101936004C04031DD92C1A302000C300F830890B43
:10194600A22CC30BA22C0000523023009A000630B2
:101956002000C3003030890BAE2CC30BAE2C000028
:10196600313023009A0006302000C3003030890B46
:10197600BA2CC30BBA2C0000303023009A00063074
:101986002000C3003030890BC62CC30BC62C0000C8
:10199600363023009A0006302000C3003030890B11
:1019A600D22CC30BD22C000020008C14CB01CC010E
:1019B600D901DA01303021003906031D2E2D200011
:1019C6000F1B2E2D57085804031D2E2D4B034C04B8
:1019D600031D282D1A302000C300F830890BF12C86
:1019E600C30BF12C0000523023009A000630200071
:1019F600C3003030890BFD2CC30BFD2C00003030AA
:101A060023009A0006302000C3003030890B092DD0
:101A1600C30B092D0000303023009A000630200049
:101A2600C3003030890B152DC30B152D0000373040
:101A360023009A0006302000C3003030890B212D88
:101A4600C30B212D000020000C11CB01CC0101306D
:101A5600D7000030D800303021003906031D7D2D17
:101A660020000F1F7D2D57035804031D7D2D4B03AA
:101A76004C04031D792D1A302000C300F830890B61
:101A8600422DC30B422D0000523023009A0006302F
:101A96002000C3003030890B4E2DC30B4E2D0000A5
:101AA600313023009A0006302000C3003030890B05
:101AB6005A2DC30B5A2D0000303023009A000630F1
:101AC6002000C3003030890B662DC30B662D000045
:101AD600373023009A0006302000C3003030890BCF
:101AE600722DC30B722D000020000C15CB01CC010A
:101AF600D701D801303021003A06031DCE2D200033
:101B06008F1ACE2D55085604031DCE2D4B034C04BB
:101B1600031DC82D1A302000C300F830890B912D03
:101B2600C30B912D0000523023009A00063020008E
:101B3600C3003030890B9D2DC30B9D2D0000303026
:101B460023009A0006302000C3003030890BA92DEF
:101B5600C30BA92D0000303023009A000630200068
:101B6600C3003030890BB52DC30BB52D00003830BE
:101B760023009A0006302000C3003030890BC12DA7
:101B8600C30BC12D000020008D11CB01CC0101300B
:101B9600D5000030D600303021003A06031D1D2E38
:101BA60020008F1E1D2E55035604031D1D2E4B03AC
:101BB6004C04031D192E1A302000C300F830890B7F
:101BC600E22DC30BE22D0000523023009A000630AE
:101BD6002000C3003030890BEE2DC30BEE2D000024
:101BE600313023009A0006302000C3003030890BC4
:101BF600FA2DC30BFA2D0000303023009A00063070
:101C06002000C3003030890B062EC30B062E0000C1
:101C1600383023009A0006302000C3003030890B8C
:101C2600122EC30B122E000020008D15CB01CC0105
:101C3600D501D601303021003B06031D6E2E200053
:101C46000F1A6E2E53085404031D6E2E4B034C04BC
:101C5600031D682E1A302000C300F830890B312E80
:101C6600C30B312E0000523023009A0006302000AC
:101C7600C3003030890B3D2EC30B3D2E00003030A3
:101C860023009A0006302000C3003030890B492E0D
:101C9600C30B492E0000303023009A000630200086
:101CA600C3003030890B552EC30B552E000039303A
:101CB60023009A0006302000C3003030890B612EC5
:101CC600C30B612E000020008C12CB01CC01013029
:101CD600D3000030D400303021003B06031DBD2E5A
:101CE60020000F1EBD2E53035404031DBD2E4B03AF
:101CF6004C04031DB92E1A302000C300F830890B9E
:101D0600822EC30B822E0000523023009A0006302A
:101D16002000C3003030890B8E2EC30B8E2E0000A0
:101D2600313023009A0006302000C3003030890B82
:101D36009A2EC30B9A2E0000303023009A000630EC
:101D46002000C3003030890BA62EC30BA62E000040
:101D5600393023009A0006302000C3003030890B4A
:101D6600B22EC30BB22E000020008C16CB01CC0184
:101D7600D301D401303021003C06031D0E2F200074
:101D86008F190E2F51085204031D0E2F4B034C04BE
:101D9600031D082F1A302000C300F830890BD12EFE
:101DA600C30BD12E0000523023009A0006302000CB
:101DB600C3003030890BDD2EC30BDD2E0000303022
:101DC60023009A0006302000C3003030890BE92E2C
:101DD600C30BE92E0000313023009A0006302000A4
:101DE600C3003030890BF52EC30BF52E00003030C2
:101DF60023009A0006302000C3003030890B012FE3
:101E0600C30B012F000020000E10CB01CC010130C6
:101E1600D1000030D200303021003C06031D5D2F7A
:101E260020008F1D5D2F51035204031D5D2F4B03B0
:101E36004C04031D592F1A302000C300F830890BBB
:101E4600222FC30B222F0000523023009A000630A7
:101E56002000C3003030890B2E2FC30B2E2F00001D
:101E6600313023009A0006302000C3003030890B41
:101E76003A2FC30B3A2F0000313023009A00063068
:101E86002000C3003030890B462FC30B462F0000BD
:101E9600303023009A0006302000C3003030890B12
:101EA600522FC30B522F000020000E14CB01CC0181
:101EB600D101D201303021003D06031DAF2F200095
:101EC6000F19AF2F4F085004031DAF2F4B034C04BF
:101ED600031DA82F1A302000C300F830890B712F7C
:101EE600C30B712F0000523023009A0006302000E9
:101EF600C3003030890B7D2FC30B7D2F000030309F
:101F060023009A0006302000C3003030890B892F49
:101F1600C30B892F0000313023009A0006302000C1
:101F2600C3003030890B952FC30B952F000031303D
:101F360023009A0006302000C3003030890BA12F01
:101F4600C30BA12F000025000C102000CB01CC01F3
:101F56000130CF000030D000303021003D06031D97
:101F6600862820000F1D86284F035004031D86284F
:101F76004B034C04031DFA2F1A302000C300F8301F
:101F8600890BC32FC30BC32F0000523023009A00C6
:101F960006302000C3003030890BCF2FC30BCF2F64
:101FA6000000313023009A0006302000C300303094
:101FB600890BDB2FC30BDB2F0000313023009A0087
:101FC60006302000C3003030890BE72FC30BE72F04
:101FD6000000313023009A0006302000C300303064
:101FE600890BF32FC30BF32F000025000C142000E0
:0A1FF600CB01CC01CF01D0018628F9
:020000040001F9
:04000E00A2C9FFDDA7
:00000001FF
